:020000040000FA
:040000004EEF18F0B7
:1027E800000EC96EC7A0FED7D890C930120087EC7A
:1027F80014F0EAEC39F0A8EC37F01200000E0001F2
:10280800E76F000EE66F000EED6F1200016E01C05B
:10281800A9FFA69CA69EA68000F000F0A850120072
:10282800000EC5EC15F0000EC5EC15F0000EC5EC59
:1028380015F01200000E0001F56F000E016E020E79
:10284800F9EC15F00EEC2DF01200010E0001F56FF9
:10285800010E016E020EF9EC15F00EEC2DF01200CF
:10286800046E000EC5EC15F00450C5EC15F0000E12
:10287800C5EC15F01200046E0450C5EC15F0000EFE
:10288800C5EC15F0000EC5EC15F01200046E000E34
:10289800C5EC15F0000EC5EC15F00450C5EC15F0AC
:1028A8001200046E0450C5EC15F0D8900430C5EC45
:1028B80015F0000EC5EC15F012000001ED05D8A4C6
:1028C80002D0010E1200000EE76F000EE66F000E38
:1028D8001200000E076E075048EC1EF00009D8A43D
:1028E800FAD7072A050E0764F6D71200046ED890A7
:1028F8000430C5EC15F0D8900430C5EC15F0000E86
:10290800C5EC15F01200B8C141F1B9C14AF1BAC11C
:1029180065F1BBC15CF1BCC153F1BDC16EF11200E0
:10292800046ED8900430C5EC15F0D8900430C5EC8E
:1029380015F0D8900430C5EC15F012008192000E05
:10294800026E000E016E00F0014A022A02BEFBD799
:10295800100E015C270E0258D8B01200F4D78182FD
:1029680000F000F000F000F000F000F000F000F0DF
:1029780000F000F000F000F000F0819200F000F0AC
:102988001200818200F000F000F000F000F000F08A
:10299800819200F000F000F000F000F000F000F08C
:1029A80000F000F01200000E0101066F000E016E2B
:1029B800030E0124D96EDA6A010EDA22000EDF6EE8
:1029C800012A010E0164F4D71200010E0F01386FBD
:1029D800010E926E000E806E000E396F000E816E31
:1029E800000E936E160EC06E000EC16E12000150DE
:1029F8000302F3CF05F0F4CF06F001500402F350C0
:102A0800062602500302F350062605C001F006C050
:102A180002F012000001E64BE72BE651015C025080
:102A2800800A036EE751800A0358D8B004D0010E1B
:102A3800ED6F010E1200000E1200000E0A6E6DEC12
:102A480014F0050E096E0F0E086EF10EE82EFED773
:102A5800082EFCD7092EFAD700F00A2A090E0A64B4
:102A6800EED7120006C133F0F4EC18F0010E346E04
:102A780005D033506DEC16F0346E33063404D8B4F8
:102A8800F8D709EC2EF0E806D8B4FBD7345012007A
:102A9800046E01C005F00DD0A00E0424D96EDA6AC8
:102AA800010EDA220550DE18D8A402D0010E120059
:102AB800052A0550025CD8B0EFD7000E12000101BC
:102AC800945195C101F0026A015E000E025A010498
:102AD8000210D8A402D0000E1200040E9519D8A432
:102AE80004D0070E9419D8B4F6D7010E1200FF0EC1
:102AF800036EFF0E046E01C005F002C006F003501D
:102B080005260450062205C0F6F006C0F7F00001BD
:102B1800F86BF96BFA6BFB6BFC6BFD6B1200010138
:102B2800BA51D8B403D0BC51D8A40DD0FA0E5E6EF9
:102B38007F0E5F6EE8EC1AF006D0F80E5E6E7F0E20
:102B48005F6EE8EC1AF00101B851D8B41200F5D75D
:102B58000101B805D8B403D0BD05D8A40DD0F80E2E
:102B68005E6E7F0E5F6EE8EC1AF006D0FA0E5E6EAF
:102B78007F0E5F6EE8EC1AF00101B905D8B41200B7
:102B8800F5D7016E000E036E000E026E01AE03D083
:102B9800B3EC14F002D0C5EC14F0D8900136024A18
:102BA800032A03BEF3D7035005E1080E025CD8B030
:102BB8001200ECD71200046E000E056E01C006F07C
:102BC8000ED0900E0424D96EDA6A010EDA2206506D
:102BD800DE18D8A403D0010E056E05D0062A0650CB
:102BE800025CD8B0EED705501200026E000EF2BE9D
:102BF800010E036E02C0A9FF01C0A8FFA69EA69CF5
:102C0800A684F29E550EA76EAA0EA76EA682A6B23D
:102C1800FED7A69403B002D0F29E01D0F28E120025
:102C2800050E0101BA19D8B404D0050EBC19D8A4F0
:102C38000DD0FA0E5E6E7F0E5F6EE8EC1AF006D0CD
:102C4800F80E5E6E7F0E5F6EE8EC1AF0050E01015D
:102C5800B819D8B41200F4D7C79EC79CC68AC698BC
:102C6800F00EC616210EC66E000EC76E9488949A92
:102C7800949692909292929492969298929A0F0128
:102C88003A973A993A9B8980898289848986898882
:102C9800898A12000101B851D8A493EC15F061ECAF
:102CA80014F0E806D8B412000FD0000E026E080E19
:102CB800016E0EEC15F0E806D8B41200FA0E5E6E3E
:102CC8007F0E5F6EE8EC1AF00101B905D8B4120066
:102CD800ECD7036E000E026E030E0324D96EDA6A77
:102CE800010EDA22120EDE18D8A40BD0030E03242C
:102CF800D96EDA6A010EDA22010EDF6E010E026E5B
:102D080007D0030E0324D96EDA6A010EDA22DF2A0D
:102D180002501200036E0AD0420E1200520E120028
:102D2800460E12004C0E1200400E12000350016EA7
:102D3800026A0250000AD8A4F7D70150010AD8B491
:102D4800EBD7030AD8B4EAD7010AD8B4E9D7070AF7
:102D5800D8B4E8D7E9D7036E0AD0550E1200520E40
:102D68001200440E12004C0E1200400E12000350C6
:102D7800016E026A0250000AD8A4F7D70150010A6E
:102D8800D8B4EBD7030AD8B4EAD7010AD8B4E9D73C
:102D9800070AD8B4E8D7E9D7036E0AD0550E12004F
:102DA800420E1200440E1200460E1200400E12008F
:102DB8000350016E026A0250000AD8A4F7D70150E6
:102DC800010AD8B4EBD7030AD8B4EAD7010AD8B4B1
:102DD800E9D7070AD8B4E8D7E9D7036E0AD0550E61
:102DE80012004C0E1200440E1200520E1200400E39
:102DF80012000350016E026A0250000AD8A4F7D7E5
:102E08000150010AD8B4EBD7030AD8B4EAD7010AAB
:102E1800D8B4E9D7070AD8B4E8D7E9D7036E0AD0F7
:102E2800550E1200420E1200440E1200460E1200F9
:102E3800400E12000350016E026A0250000AD8A424
:102E4800F7D70150010AD8B4EBD7030AD8B4EAD7A8
:102E5800010AD8B4E9D7070AD8B4E8D7E9D7036E86
:102E68000AD0460E1200520E1200420E12004C0EEC
:102E78001200400E12000350016E026A0250000A4E
:102E8800D8A4F7D70150010AD8B4EBD7030AD8B4AD
:102E9800EAD7010AD8B4E9D7070AD8B4E8D7E9D7F6
:102EA800000E066E9C0E0624D96EDA6A010EDA222E
:102EB800DF50036E06500124046E000E0220056EDA
:102EC80004C0F6FF05C0F7FF0800F5500318D8B492
:102ED80002D0010E1200062A030E0664E3D7000E84
:102EE8001200000E066EB40E0624D96EDA6A010EC0
:102EF800DA22DF50036E06500124046E000E022011
:102F0800056E04C0F6FF05C0F7FF0800F55003186A
:102F1800D8B402D0010E1200062A030E0664E3D7C5
:102F2800000E12001B6E1B5048EC1EF0126E1B5058
:102F3800D6EC32F0640AD8A416D0C8EC18F0C8EC65
:102F480018F0C8EC18F0C8EC18F0C8EC18F0C8EC89
:102F580018F0C8EC18F0C8EC18F0C8EC18F06DECD4
:102F680014F0010E1200000E12002DEC30F0EAEC05
:102F780039F0010E0001606F6051090D450EF32410
:102F8800D96E010EF420DA6E6051090D430EF32458
:102F9800E16E010EF420E26EDE50E618D8A402D0ED
:102FA800010E1200602B040E6065E6D7000E1200B9
:102FB900282968287E289428AA28F4282828043053
:102FC900FE32EA309E325E334232BE3301000102E4
:102FD90003040506070000000000000000000102CC
:102FE900030405060708090A0B0000000000000099
:102FF900000000000000010203040501018F51D8FF
:10300900B41200010E016E000E026E000E036E0076
:103019000E046E8A86700EE82EFED78A96700EE828
:103029002EFED7010E0126000E02220322042204DD
:10303900BEF0D704500310021005E10F0E015CD851
:10304900B01200E7D71200000E0001996F01019438
:1030590051A8C196F00001976B965F000E975B042B
:103069000E96199711D8A402D0000E1200FA0E5E1E
:103079006E7F0E5F6EE8EC1AF00001992B030E9932
:1030890065E5D7FA0E5E6E7F0E5F6EE8EC1AF00109
:103099000E1200B90EF66E2F0EF76E000EF86E01C5
:1030A900EE73F010EE4BF00900F5CFEEFFE550E1BD
:1030B90050FAE102EE00F02E0EEE6AE806FDE1019B
:1030C900EE00F0730EEE6AE806FDE100EEE3F01B98
:1030D9000EEE6AE806FDE1000EF86E000125EF2C00
:1030E900F001018F51D8B41200010E016E000E02D9
:1030F9006E000E036E000E046E8A86750EE82EFEB3
:10310900D700F08A96750EE82EFED700F0010E0161
:1031190026000E02220322042204BEEED704500325
:1031290010021005E11E0E015CD8B01200E5D7129D
:1031390000000E0AEC14F0FF0AD8A413D0E90EF629
:103149006E7D0EF76E00EE01F02D0E0900F5CFEE43
:10315900FFE806FBE22E0EE95EE86AEA5A85EC23EF
:10316900F002D004EC23F0020E0AEC14F00001F591
:103179006FF529D8A41200000EF56F000E016E023A
:103189000EF9EC15F01200010E026E000E036E002E
:103199000E046E000E056E8A860B0E016E620EE835
:1031A9002EFED7012EFCD700D08A960B0E016E6237
:1031B9000EE82EFED7012EFCD700D0010E02260004
:1031C9000E03220422052205BEE6D705500410038A
:1031D9001005E11E0E025CD8B01200DDD712000303
:1031E9000E01010625D96EDA6A010EDA22110EDF07
:1031F900641200010E026E000E036E0DD0030E0361
:1032090024D96EDA6A010EDA22120EDE18D8B40257
:10321900D0000E026E032A0651035CD8A0EFD70234
:1032290050D8B41200062B030E0625D96EDA6A01AE
:103239000EDA22010EDF6E120001018F51D8B4128D
:1032490000010E016E000E026E000E036E000E04E8
:103259006E8A86E40E00D000D0E82EFCD700D0009C
:10326900D08A96E40E00D000D0E82EFCD700D0001A
:10327900D0010E0126000E02220322042204BEE818
:10328900D704500310021005E11E0E015CD8B012DC
:1032990000DFD7120001018F51D8B41200010E02CC
:1032A9006E000E036E000E046E000E056E8A860710
:1032B9000E016E3A0EE82EFED7012EFCD700D08AF9
:1032C90096070E016E3A0EE82EFED7012EFCD700A6
:1032D900D0010E0226000E03220422052205BEE6B5
:1032E900D705500410031005E11E0E025CD8B01278
:1032F90000DDD7120001018F51D8B41200010E016F
:103309006E000E026E000E036E000E046E8A86B603
:103319000E00D000D0E82EFCD700D000D000D08A13
:1033290096B60E00D000D0E82EFCD700D000D00011
:10333900D0010E0126000E02220322042204BEE659
:10334900D704500310021005E11E0E015CD8B0121B
:1033590000DDD7120001018F51D8B41200010E020D
:103369006E000E036E000E046E000E056E8A860551
:103379000E016E260EE82EFED7012EFCD700D08A4C
:1033890096050E016E260EE82EFED7012EFCD700FB
:10339900D0010E0226000E03220422052205BEE6F4
:1033A900D705500410031005E11E0E025CD8B012B7
:1033B90000DDD7120001018F51D8B41200010E02AD
:1033C9006E000E036E000E046E000E056E8A8614E2
:1033D9000E016EDC0EE82EFED7012EFCD700D08A36
:1033E90096140E016EDC0EE82EFED7012EFCD700D6
:1033F900D0010E0226000E03220422052205BEE694
:10340900D705500410031005E11E0E025CD8B01256
:1034190000DDD71200000E056E000E076E07500979
:103429000D3D0EF324D96E010EF420DA6EDF50043F
:103439006E010E066E0750090D3D0E016E010E025A
:103449006EF3500126F450022206500124D96E0071
:103459000E0220DA6E0450DE18D8A4052A062A08BE
:103469000E0664E8D7072A050E0764D8D70550D891
:10347900A402D0010E1200000E1200096E000E0BFC
:103489006E000E0A6E000E0D6E000E0C6E0AC00163
:10349900F00BC002F0000E046E090E036EFBEC1473
:1034A900F0070E076E010E086E015007260250083C
:1034B900220C500724D96E0D500820DA6E09C0DF9E
:1034C900FF0C4A0D2A0D5004E1090E0C5CD8A0DE50
:1034D900D70A4A0B2A0B5005E1060E0A5CD8B0122E
:1034E90000D1D71200000E286E24AE06D0236C241A
:1034F9001ED8B0242A010E286E26AE04D0256C26CB
:103509001ED8B0262A25502610D8B418D0010E2767
:103519006E04D0D89025362636272A26AEFAD72526
:1035290050235C26502458D8A004D02550235E2669
:1035390050245AD89026322532272EF1D72850D830
:10354900B404D0236C241ED8B0242A23C023F02429
:10355900C024F012004B6EF0C04EF0000E4D6E000C
:103569000E4C6E4B5042EC1AF0070E076E010E0816
:103579006E4EC009F01FEC21F0C70E4E6402D00157
:103589000E05D01F0E4E6003D04C2A000E4D6E4D15
:1035990050D8A405D0040E4E2602EC18F004D0032E
:1035A9000E4E5E7FEC19F0030E4C6401D00AD04A2E
:1035B9005096EC17F0E806D8A4D7D76DEC14F001B3
:1035C9000E1200000E12005EC0F6FF5FC0F7FF0882
:1035D90000F5500001F219D8B40CD02DEC30F05E92
:1035E900C0F6FF5FC0F7FF0800F5CFF2F0000E004C
:1035F90001F16F5EC033F05FC034F0EFEC1DF008ED
:10360900D0030EF1271200020EF1271200F12B123E
:1036190000010E5E240001926F000E5F20936F92ED
:10362900C0F6FF93C0F7FF0800F550946F956B95AE
:1036390051000AD8A412009451000AD8B4E7D72738
:103649000AD8B4DED7150AD8A41200DDD720EE11A6
:10365900F0070EDE6AE806FDE201A010D00950115C
:10366900260A5012220B5013220C5014220D501509
:10367900220E5016220F50172210501822D89009E6
:10368900360A360B360C360D360E360F361036D84E
:10369900900832073206320532043203320232010F
:1036A900320150021003100410051006100710080B
:1036B90010D8A4D2D711C001F012C002F013C00370
:1036C900F014C004F015C005F016C006F017C007C5
:1036D900F018C008F0120037C001F038C002F07BC2
:1036E900EC15F0000E4E6ECFEC1FF019C023F01A46
:1036F900C024F0000E266E1B0E256E77EC1AF00121
:103709000E23263A0E4E24D96EDA6A000EDA2223E7
:10371900C0DFFF4E2A130E4E64E6D7000E4E6E3AF6
:103729000E4E24D96EDA6A000EDA22DF50396E396C
:1037390050050D020EF326000EF422910EF324F625
:103749006E7A0EF420F76E0900F5CF33F00A00F512
:10375900CF34F0EFEC1DF04E2A130E4E64E0D71271
:103769000061EC14F0E806D8B41200000E000196CE
:103779006F000E026E140E016E0EEC15F0E806D8FD
:10378900B41200040E0101A419D8A404D0030EBB7D
:1037990019D8B417D0050EA419D8A404D0020EBBA9
:1037A90019D8B40FD0060EA419D8A403D0BB05D8D4
:1037B900B408D0070EA419D8A413D0040EBB19D885
:1037C900A40FD00001962BC20E5E6E7F0E5F6EE8CD
:1037D900EC1AF0FA0E5E6E7F0E5F6EE8EC1AF006D8
:1037E900D0F60E5E6E7F0E5F6EE8EC1AF0030E00E7
:1037F900019665BED71200000E0C6E000E0B6E000E
:103809000E0E6E000E0D6E0BC001F00CC002F00022
:103819000E046E090E036EFBEC14F03D0E076E01EB
:103829000E086E01500726025008220D500724D9B0
:103839006E0E500820DA6E0BC001F00CC002F000C9
:103849000E046E090E036EFBEC14F0070E096E01EF
:103859000E0A6E0150092602500A220D500924E170
:103869006E0E500A20E26EDFCFE7FF0D4A0E2A0ED8
:103879005004E1090E0D5CD8A0C6D70B4A0C2A0CDE
:103889005005E1060E0B5CD8B01200B9D71200073B
:103899000E0001966F61EC14F0E806D8B412003AF4
:1038A900D0000E026E320E016E0EEC15F0E806D84D
:1038B900B41200000E0001976F9651040D6B0EF3C0
:1038C90024016E7E0EF420026E54EC17F00009D824
:1038D900A415D0000E0001986F9851030DD00EF376
:1038E900245E6E7E0EF4205F6EE8EC1AF0000198FB
:1038F9002B060E9865F1D7070E966F0BD0E80E5E72
:103909006E7F0E5F6EE8EC1AF00001972B030E979D
:1039190065D3D79607870E016E7E0E026E54EC179B
:10392900F00009D8B41200BCD7000E4C6E4CC0236D
:10393900F0246A000E266E050E256E77EC1AF02328
:103949002842EC1AF04CC023F0246A000E266E07B8
:103959000E256E77EC1AF0D89023362436810E2383
:1039690024D96E010E2420DA6E01D80AD00500FA96
:103979006EDE50FD6EDE50FE6EF850FF6EFA50128C
:1039890000070E076E010E086E640E096E1FEC210A
:10399900F0D00E4A6ECA0EE82EFED74A2EFCD70585
:1039A9000E96EC17F0E806D8B412004C2A310E4CEA
:1039B90064BDD7110E4B6E3C0E4A6ECB0EE82EFE3F
:1039C900D74A2EFCD74B2EFAD700F01200000E056D
:1039D9006E000E066E940E0624D96EDA6A010EDAAE
:1039E90022DF50016E026A0650036E046A040E0358
:1039F90026000E04220150031804E102500418D8CD
:103A0900B402D0010E12009C0E0624D96EDA6A01A6
:103A19000EDA22DF500526062A030E0664DBD700DC
:103A29000E066EA80E0624D96EDA6A010EDA22DFB6
:103A390050016E026A0650036E046A080E032600DE
:103A49000E042201500318DDE102500418D8A4D94C
:103A5900D7B40E0624D96EDA6A010EDA22DF5005D0
:103A690026062A030E0664DDD70550D8A4CAD70056
:103A79000E1200000E0C6E000E0B6E000E086E008A
:103A89000E076E000E0E6E000E0D6E940E0D24D9EB
:103A99006E010E0E20DA6E040EDE18D8B40AD00DAF
:103AA9004A0E2A0EBEF2D70E5004E1040E0D5CD860
:103AB900A0ECD70DC009F00EC00AF0000E0E6E0082
:103AC9000E0D6E09500D24016E0A500E20026E0370
:103AD9000E0116000E0216940E0124D96E010E0273
:103AE90020DA6EDF50036E046A040E0D24056E00A1
:103AF9000E0E20066E0350051804E104500618D86E
:103B0900B404D0000E0C6E010E0B6E0D4A0E2A0E77
:103B1900BED8D70E5004E1040E0D5CD8A0D2D70B45
:103B2900501200000E116E000E106E2AD0105009AE
:103B3900240B6E11500A200C6E0BC0F6FF0CC0F757
:103B4900FF0800F5CF0DF0105007240E6E11500834
:103B5900200F6E0EC0F6FF0FC0F7FFF86A050EF7CB
:103B69006403D00800F55005D0F6CFE9FFF7CFEA96
:103B7900FFEF500D18D8B402D0FF0E1200104A11F1
:103B89002A105007240B6E115008200C6E0BC0F63A
:103B9900FF0CC0F7FFF86A050EF76403D00800F5BB
:103BA9005005D0F6CFE9FFF7CFEAFFEF500009D86B
:103BB900A4BDD7105009240B6E11500A200C6E0BAE
:103BC900C0F6FF0CC0F7FF0800F5500009D8A4D4CF
:103BD900D7000E1200000E366E000E356E33C00788
:103BE900F034C008F035C001F036C002F0000E0410
:103BF9006E050E036EFBEC14F0020E0126000E0298
:103C090022910E0124F66E7A0E0220F76E0900F554
:103C1900CF09F00A00F5CF0AF096EC1DF00009D89B
:103C2900A426D035C001F036C002F0000E046E059E
:103C39000E036EFBEC14F0910E0124296E7A0E022C
:103C4900202A6EF6EC35F036BE1200365004E10239
:103C59000E355CD8A0120036BE06D0365013E11DD1
:103C69000E355CD8B012000001E84BE92B12003583
:103C79004A362A36BEB3D7365005E1260E355CD80A
:103C8900B01200ACD71200036E000E066E000E05CE
:103C99006E000E066E000E056E24D005B002D089A6
:103CA9009001D0898038D005B002D0899201D0899D
:103CB9008232D005B002D0899401D089842CD005F4
:103CC900B002D0899601D0898626D005B002D08964
:103CD9009801D0898820D005B002D0899A01D0896D
:103CE9008A1AD00350016E026A0250000AD8A4133E
:103CF900D00150000AD8B4D1D7010AD8B4D4D70317
:103D09000AD8B4D7D7010AD8B4DAD7070AD8B4DDA4
:103D1900D7010AD8B4E0D705500610D8A403D0F4C7
:103D2900EC13F0046E054A062A06BEDBD7065004DA
:103D3900E1020E055CD8A0D5D70450120021EE90FF
:103D4900F000EE01F02D0EDBCFEBFFE806FCE2AA56
:103D59000E2F6E000E306EBAEC25F06DEC14F0A645
:103D6900C037F0A7C038F070EC1BF000EC1CF0076E
:103D79000E076E010E086EF0C009F01FEC21F00D60
:103D89000E0001A96F2D0EA86FD70EE82EFED7A839
:103D99002FFCD7A92FFAD700D0050E0001A06F017B
:103DA9000E7CEC29F000EC1CF0070E076E010E08E2
:103DB9006EF0C009F01FEC21F0290E0001A96F96E1
:103DC9000EA86F7F0EE82EFED7A82FFCD7A92FFAD1
:103DD900D720EEAAF000EE01F02D0EDBCFEBFFE8C5
:103DE90006FCE2900E2F6E010E306EBAEC25F00043
:103DF90001F351D8A402D0010E1200000E12006185
:103E0900EC14F0E806D8B4120054D0000E026E3259
:103E19000E016E0EEC15F0E806D8B41200000E0083
:103E2900019C6F000E9B6F19D09C51040D870EF3F6
:103E390024016E7F0EF420026E75EC17F00009D88C
:103E4900A404D0030E00019C6F1FD0E80E5E6E7FA4
:103E59000E5F6EE8EC1AF000019B2B9C51966F9750
:103E69006BD89096379737020E9627000E97239BAB
:103E790051986F996B9651985D9951800A9A6F97ED
:103E890051800A9A59D8A0D0D79C2B010E9C65C99C
:103E9900D7000E9C6F9C51030DE50EF3245E6E7ED8
:103EA9000EF4205F6EE8EC1AF000019C2B050E9CC5
:103EB90065F1D78F0E016E7F0E026E75EC17F0E873
:103EC90006D8A41200A2D7000E0C6E000E016E03D4
:103ED9000E026E0C504CEC15F0E806D8B402D00175
:103EE9000E12000C2A0C50800A7C0FD8A0EED700C5
:103EF9000E0B6E000E0C6EAC0E0C24D96EDA6A0134
:103F09000EDA22DF500B260C2A0C50800A7C0FD8BF
:103F1900A0F2D70B50D8B406D0040E0B18D8B402AF
:103F2900D0020E1200030E0C6EA00E0C24D96EDA0C
:103F39006A010EDA22DF50D8B403D00C060CAEF4B5
:103F4900D7000E0B6E0BC006F0076A06BE07069473
:103F59000E0624D96E010E0720DA6EDF50086E09AD
:103F69006AA00E0B24D96EDA6A010EDA22DF500A32
:103F79006E0A50085E000E095A08500910D8B4029A
:103F8900D0030E12000B2A0B50800A7C0FD8A0DA3E
:103F9900D7000E1200F6C001F0F7C002F0F8C00316
:103FA900F0F9C004F0FAC005F0FBC006F0FCC00748
:103FB900F0FDC008F02D0E096E7F0E0A6E950E0BEE
:103FC9006E4C0E0C6E2D0E0D6EF40E0E6E510E0F04
:103FD9006E580E106E2BEC1BF001C01BF002C01CBA
:103FE900F003C01DF004C01EF005C01FF006C0207C
:103FF900F007C021F008C022F0010E1B240001F6D1
:104009006F000E1C20F76F000E1D20F86F000E1EAA
:1040190020F96F000E1F20FA6F000E2020FB6F00A1
:104029000E2120FC6F000E2220FD6FF6C01BF0F759
:10403900C01CF0F8C01DF0F9C01EF0FAC01FF0FB5B
:10404900C020F0FCC021F0FDC022F0080E09D0D834
:10405900902232213220321F321E321D321C321B75
:1040690032E82EF5D71BC019F01DC01AF012000056
:1040790001EE5196EC17F0E806D8A403D0000E0023
:1040890001F36F000E536E000E526E0001F351D80A
:10409900B43ED0F4C023F0246A000E266E0C0E251F
:1040A9006E77EC1AF023500001F46F4AC01FF04BF1
:1040B900C020F05CEC2AF04CC01FF04DC020F05C31
:1040C900EC2AF04EC01FF04FC020F05CEC2AF00043
:1040D900EC1CF0070E076E010E086EF0C009F01F08
:1040E900EC21F00A0E516EBE0E506E790EE82EFECE
:1040F900D7502EFCD7512EFAD700F0524A532A53E3
:10410900BEC4D7535004E1030E525CD8A0BED700F9
:1041190001F351D8B4120000EC1CF0070E076E0130
:104129000E086EF0C009F01FEC21F0090E516E1E49
:104139000E506EE40EE82EFED7502EFCD7512EFA03
:10414900D700D0000E0001F46F12004C6E000E4E25
:104159006E000E4D6E000E4F6E4D50090D3D0E4A0C
:104169006E010E4B6EF3504A26F4504B224F504AC3
:1041790024D96E000E4B20DA6E4F504E24236E2444
:104189006A2436000E266E050E256E77EC1AF0238A
:1041990028DF6E4F2A080E4F64DFD74D2A050E4DD2
:1041A90064D9D700EC1CF04EC023F0246A000E2617
:1041B9006E070E256E77EC1AF0D8902336243681D7
:1041C9000E2324D96E010E2420DA6E01D80AD005F7
:1041D90000FA6EDE50FD6EDE50FE6EF850FF6EFA8C
:1041E900501200070E076E010E086EF0C009F01F8D
:1041F900EC21F0D00E4A6ECA0EE82EFED74A2EFCEC
:10420900D74C5096EC17F0E806D8A402D0010E124C
:10421900004E2A310E4E649CD7110E4B6E3C0E4A4D
:104229006ECB0EE82EFED74A2EFCD74B2EFAD700BE
:10423900F0000E1200000E476E000E466E000E4989
:104249006E000E486E46C001F047C002F0000E0431
:104259006E090E036EFBEC14F007C00AF008C00BE0
:10426900F001500A2602500B2248500A24D96E49FF
:10427900500B20DA6E46C001F047C002F0000E0470
:104289006E090E036EFBEC14F00E0E0C6E000E0D93
:104299006E01500C2602500D2248500C24E16E4943
:1042A900500D20E26EDFCFE7FF484A492A49500402
:1042B900E1090E485CD8A0C6D7464A472A475004A8
:1042C900E1060E465CD8A0BAD7000E456E000E4432
:1042D9006E0E0E4424D96E000E4520DA6EDF500AA8
:1042E9006E0A50020D730EF324D96E010EF420DA12
:1042F9006E01D80BD00500FA6EDE50FD6EDE50FE61
:104309006EF850FF6EFA5009501200444A452A458A
:104319005004E1360E445CD8A0DBD7A2EC14F012AD
:10432900002DEC30F0000E5F6E000E016E030E02E0
:104339006E5F50DFEC15F0E806D8B402D0010E121A
:10434900005F2A5F50800A7C0FD8A0EED7000E5F6D
:104359006E980E5F24D96EDA6A010EDA22DF50D820
:10436900B402D0020E12005F2A5F50800A7C0FD877
:10437900A0EFD7030E5F6E900E5F24D96EDA6A0143
:104389000EDA22030EDE18D8B403D05F065FAEF34F
:10439900D7000E5E6E5EC060F00001616B60BF61A8
:1043A90007030E626F000E636F6051625F615163B4
:1043B9005B5EC064F0656B64BF65075FC066F067EC
:1043C9006B66BF67076451665F6551675B040E667C
:1043D90027000E6723030E6617000E6717900E66F7
:1043E90025D96E010E6721DA6EDF50686F696B623D
:1043F90051681904E163516919D8B402D0030E1246
:10440900005E2A5E50800A7C0FD8A0C4D7000E1225
:1044190000B9EC17F00009D8A412D0000E00019AD7
:104429006F9A51030D4F0EF3245E6E7B0EF4205FDD
:104439006EE8EC1AF000019A2B130E9A65F1D73E3B
:10444900EC1DF00009D8B41200ACEC15F061EC14C5
:10445900F0E806D8B412000FD0000E026E320E0139
:104469006E0EEC15F0E806D8B41200E80E5E6E7F09
:104479000E5F6EE8EC1AF063EC15F0E806D8B4ECC0
:10448900D7E80E5E6E7F0E5F6EE8EC1AF061EC14F1
:10449900F0E806D8B4120015D0000E026E080E011D
:1044A9006E0EEC15F0E806D8B41200B60E5E6E7FFB
:1044B9000E5F6EE8EC1AF0EA0E5E6E7F0E5F6EE834
:1044C900EC1AF00101905194C198F00001996B9890
:1044D9005F000E995B040E98199911D8A4DDD700D5
:1044E9000E9A6F9A51030D170EF3245E6E7E0EF429
:1044F900205F6EE8EC1AF000019A2B0D0E9A65F117
:10450900D7ACEC15F01200000E0001976F73D004C0
:104519000E016E070E026E060E4CEC15F0E806D879
:10452900A41FD00101B251D8B412D0000E000198D5
:104539006F9851030D8B0EF3245E6E7B0EF4205F92
:104549006EE8EC1AF00001982B050E9865F1D7007A
:1045590001972BFA0E5E6E7F0E5F6EE8EC1AF04A39
:10456900D0040E016E070E026E030E4CEC15F0E836
:1045790006D8A417D0000E0001986F9851030D12A8
:104589000EF326000EF4228B0EF3245E6E7B0EF4DE
:10459900205F6EE8EC1AF00001982B030E9865ED88
:1045A900D729D0040E016E070E026E0A0E4CEC15C7
:1045B900F0E806D8A413D0F00E5E6E7F0E5F6EE8A9
:1045C900EC1AF0C50E5E6E7F0E5F6EE8EC1AF0AD68
:1045D9000E5E6E7F0E5F6EE8EC1AF00CD0A40E5ED4
:1045E9006E7F0E5F6EE8EC1AF0A10E5E6E7F0E5FB5
:1045F9006EE8EC1AF0030E0001976589D7120003E3
:104609000E0C6E000E036E000E026E900E0224D97F
:104619006E010E0320DA6E0C500AEC14F0DF6E0CFA
:104629002A024A032A03BEF1D7035004E1080E0205
:104639005CD8A0EBD7000E056E000E046E980E0430
:1046490024D96E010E0520DA6E0C500AEC14F0DF45
:104659006E0C2A044A052A05BEF1D7055004E10863
:104669000E045CD8A0EBD7000E076E000E066EA0F4
:104679000E0624D96E010E0720DA6E0C500AEC14CE
:10468900F0DF6E0C2A064A072A07BEF1D707500445
:10469900E10C0E065CD8A0EBD7000E096E000E08DF
:1046A9006EAC0E0824D96E010E0920DA6E0C500A80
:1046B900EC14F0DF6E0C2A084A092A09BEF1D70961
:1046C9005004E10C0E085CD8A0EBD7000E0B6E006D
:1046D9000E0A6EB80E0A24D96E010E0B20DA6E0C82
:1046E900500AEC14F0DF6E0C2A0A4A0B2A0BBEF1B1
:1046F900D70B5005E1060E0A5CD8B01200EAD712B2
:1047090000000E326E000E316E080E31242F6E003D
:104719000E3220306E010E2F24D96E000E3020DAB1
:104729006E980E3124E16E010E3220E26EDFCFE782
:10473900FF010E3124D96E000E3220DA6E900E314F
:1047490024E16E010E3220E26EDFCFE7FF314A32FB
:104759002A32BEDAD7325004E1080E315CD8A0D42F
:10476900D7000E326E000E316E1C0E31242F6E00F2
:104779000E3220306E010E2F24D96E000E3020DA51
:104789006EAC0E3124E16E010E3220E26EDFCFE70E
:10479900FF100E31242F6E000E3220306E010E2FC5
:1047A90024D96E000E3020DA6EA00E3124E16E019C
:1047B9000E3220E26EDFCFE7FF314A322A32BED411
:1047C900D7325004E10C0E315CD8A0CED7000E329E
:1047D9006E000E316E280E31242F6E000E322030FD
:1047E9006E010E2F24D96E000E3020DA6EB80E310C
:1047F90024E16E010E3220E26EDFCFE7FF314A324B
:104809002A32BEE8D7325005E1060E315CD8B01223
:1048190000E1D71200000E016E000EF9EC15F0034D
:104829000E0E6E000E056E000E046E900E0424D955
:104839006E010E0520DA6EDF50016E0E50F9EC158F
:10484900F00E2A044A052A05BEF0D7055004E108EE
:104859000E045CD8A0EAD7000E076E000E066E980B
:104869000E0624D96E010E0720DA6EDF50016E0E96
:1048790050F9EC15F00E2A064A072A07BEF0D707A9
:104889005004E1080E065CD8A0EAD7000E096E00B4
:104899000E086EA00E0824D96E010E0920DA6EDF0B
:1048A90050016E0E50F9EC15F00E2A084A092A0932
:1048B900BEF0D7095004E10C0E085CD8A0EAD70075
:1048C9000E0B6E000E0A6EAC0E0A24D96E010E0B89
:1048D90020DA6EDF50016E0E50F9EC15F00E2A0A3F
:1048E9004A0B2A0BBEF0D70B5004E10C0E0A5CD818
:1048F900A0EAD7000E0D6E000E0C6EB80E0C24D96E
:104909006E010E0D20DA6EDF50016E0E50F9EC15B6
:10491900F00E2A0C4A0D2A0DBEF0D70D5005E106FE
:104929000E0C5CD8B01200E9D712000A6E020E0014
:1049390001F419D8B47FD0050EF419D8B47BD00886
:104949000EF419D8B477D00B0EF419D8B473D082F9
:104959000EF66E7A0EF76E0800F5CF01F00A5009CF
:104969000D3D0E026E010E036EF3500226F4500344
:104979002201500224D96E000E0320DA6EDF50099D
:104989006E000E0B6E0B50016E026A010E012600BD
:104999000E0222820E0124F66E7A0E0220F76E08AC
:1049A90000F5CF03F00A50090D3D0E046E010E0506
:1049B9006EF3500426F450052203500424D96E00E6
:1049C9000E0520DA6E820E0B24F66EF76A7A0EF760
:1049D900220800F5CF06F00A50090D3D0E076E01B9
:1049E9000E086EF3500726F450082206500724E1FA
:1049F9006E000E0820E26EDFCFE7FF0B2A060E0BD2
:104A090064C1D7890EF66E7A0EF76E0800F5CF01EC
:104A1900F00A50090D3D0E026E010E036EF35002AD
:104A290026F450032201500224D96E000E0320DA25
:104A39006E09C0DFFF0001F42B0C0EF419D8A41283
:104A490000000EF46F1200000E0001986F3EEC2B6F
:104A5900F00009D8B4120061EC14F0E806D8B412D9
:104A690000000E026E320E016E0EEC15F0E806D84B
:104A7900B412000101A651AAC196F00001976B96E4
:104A89005F000E975B040E96199711D8A453D001B5
:104A990001935197C196F00001976B965F000E97AD
:104AA9005B040E96199711D8A445D03EEC2BF00063
:104AB90009D8B41200000E0001986F9851030DBB7C
:104AC9000EF3245E6E7E0EF4205F6EE8EC1AF000A1
:104AD90001982B060E9865F1D70101A451A8C1963A
:104AE900F00001976B965F000E975B040E9619977D
:104AF90011D8A40ED00101915195C196F0000197EA
:104B09006B965F000E975B040E96199711D8B41235
:104B190000000E986F9851030DBB0EF3245E6E7E54
:104B29000EF4205F6EE8EC1AF00001982B060E983F
:104B390065F1D71200982BE80E5E6E7F0E5F6EE866
:104B4900EC1AF0030E000198658BD7F60E5E6E7FA6
:104B59000E5F6EE8EC1AF0A40E5E6E7F0E5F6EE8D3
:104B6900EC1AF0000E0001986F7BD7000E366E002C
:104B79000E356E080E3524316E000E3620326E0168
:104B89000E3124D96E000E3220DA6E35502F2433BF
:104B99006E36503020346E080E3324E16E000E3428
:104BA90020E26EDFCFE7FF010E3524D96E000E3605
:104BB90020DA6E35502F24E16E36503020E26EDF58
:104BC900CFE7FF354A362A36BED4D7365004E10836
:104BD9000E355CD8A0CED7000E366E000E356E1C91
:104BE9000E3524316E000E3620326E010E3124D975
:104BF9006E000E3220DA6E35502F24336E36503067
:104C090020346E1C0E3324E16E000E3420E26EDF78
:104C1900CFE7FF100E3524316E000E3620326E01BB
:104C29000E3124D96E000E3220DA6E35502F24331E
:104C39006E36503020346E100E3324E16E000E347F
:104C490020E26EDFCFE7FF354A362A36BEC8D736AF
:104C59005004E10C0E355CD8A0C2D7000E366E00A8
:104C69000E356E280E3524316E000E3620326E0157
:104C79000E3124D96E000E3220DA6E35502F2433CE
:104C89006E36503020346E280E3324E16E000E3417
:104C990020E26EDFCFE7FF354A362A36BEE2D73645
:104CA9005005E1060E355CD8B01200DBD7120001C1
:104CB9000E0AEC14F0FF0AD8A413D0E90EF66E7DA3
:104CC9000EF76E00EE01F02D0E0900F5CFEEFFE8AC
:104CD90006FBE22E0EE95EE86AEA5A85EC23F01239
:104CE90000310E3D6E000E346E000E336E000E3331
:104CF90024D96E020E3420DA6E3D500AEC14F0DF2E
:104D09006E3D2A334A342A34BEF1D7345004E108BF
:104D19000E335CD8A0EBD7000E366E000E356E0848
:104D29000E3524D96E020E3620DA6E3D500AEC1487
:104D3900F0DF6E3D2A354A362A36BEF1D7365004A1
:104D4900E1080E355CD8A0EBD7000E386E000E379F
:104D59006E100E3724D96E020E3820DA6E3D500AD5
:104D6900EC14F0DF6E3D2A374A382A38BEF1D738BD
:104D79005004E10C0E375CD8A0EBD7000E3A6E0058
:104D89000E396E1C0E3924D96E020E3A20DA6E3DA8
:104D9900500AEC14F0DF6E3D2A394A3A2A3ABEF13C
:104DA900D73A5004E10C0E395CD8A0EBD7000E3C81
:104DB9006E000E3B6E280E3B24D96E020E3C20DAA3
:104DC9006E3D500AEC14F0DF6E3D2A3B4A3C2A3C0A
:104DD900BEF1D73C5004E1060E3B5CD8A0EBD722CC
:104DE900EE00F000EE01F02D0EDBCFEBFFE806FC44
:104DF900E285EC23F012004AC0F6FF4BC0F7FFF83A
:104E09006A050EF76403D00800F55005D0F6CFE91E
:104E1900FFF7CFEAFFEF50526E000E546E0001EE1D
:104E29005196EC17F0E806D8A403D0000E0001F360
:104E39006F4AC0F6FF4BC0F7FFF86A050EF7640327
:104E4900D00800F55005D0F6CFE9FFF7CFEAFFEF1C
:104E5900500009D8B41200010E516E010E4A244CBB
:104E69006E000E4B204D6E4CC0F6FF4DC0F7FFF89B
:104E79006A050EF76403D00800F55005D0F6CFE9AE
:104E8900FFF7CFEAFFEF50320AD8A405D0000E533E
:104E99006E020E516E17D0010E4A244C6E000E4B55
:104EA900204D6E4CC0F6FF4DC0F7FFF86A050EF7AE
:104EB9006403D00800F55005D0F6CFE9FFF7CFEA33
:104EC900FFEF50536E000E506E000E4F6E58D0001B
:104ED9000E566E000E556E0001F351D8B432D0F45F
:104EE900C023F0246A000E266E0C0E256E77EC1A8C
:104EF900F023500001F46F520E1F6E000E206E5CFD
:104F0900EC2AF000EC1CF0070E076E010E086EF09B
:104F1900C009F01FEC21F0090E4D6E1E0E4C6EE417
:104F29000EE82EFED74C2EFCD74D2EFAD700D055C1
:104F39004A562A56BED0D7565004E1030E555CD8BE
:104F4900A0CAD70001F351D8B418D000EC1CF0075F
:104F59000E076E010E086EF0C009F01FEC21F00873
:104F69000E4D6EB60E4C6E000EE82EFED74C2EFC82
:104F7900D74D2EFAD7000E0001F46F4F4A502A512F
:104F8900504C6E4D6A4C504F5C5050800A4E6E4DDD
:104F990050800A4E58D8B012009AD70150090D3DD9
:104FA9000E116E010E126EF3501126F450122205E5
:104FB900501124D96E000E1220DA6EDF501B6E00DC
:104FC9000E1E6E010E1E24D96EDA6A000EDA22DF79
:104FD900501C6E000E1D6E1E50030D010E116E0049
:104FE9000E126EF3501126F45012221D5011260094
:104FF9000E1222050E1124D96E000E1220DA6EDF70
:1050090050136E1C50090D3D0E146E010E156EF3F2
:10501900501426F450152213501424D96E000E157D
:1050290020DA6E1E50030D010E166E000E176EF378
:10503900501626F45017221D501626000E1722046A
:105049000E1624E16E000E1720E26EE750186E1C52
:1050590050090D3D0E196E010E1A6EF3501926F402
:10506900501A2218501924E16E000E1A20E26EDF40
:10507900CFE7FF1D2A010E1D64AED71E50030D0791
:105089000EF326000EF422010EF324D96E000EF45D
:1050990020DA6EDF50116E1E50126E136A010E1265
:1050A90026000E1322010E1224D96E000E1320DAE7
:1050B9006EDF50146E1450090D3D0E156E010E165B
:1050C9006EF3501526F450162211501524D96E008E
:1050D9000E1620DA6E1E50030D060EF326000EF48E
:1050E90022010EF324E16E000EF420E26EE7501760
:1050F9006E1C50090D3D0E186E010E196EF35018F5
:1051090026F450192217501824E16E000E1920E2D6
:105119006EDFCFE7FF1E2A030E1E6453D704500922
:105129000D3D0E116E010E126EF3501126F4501240
:105139002210501124D96E000E1220DA6E1BC0DF26
:10514900FF1200030E00019F6F010E9D6FACEC155D
:10515900F061EC14F0E806D8B412002DEC30F0C17F
:10516900D02DEC30F0000E026E640E016E0EEC15BF
:10517900F0E806D8B41200000E016E030E026E03A9
:105189000EDFEC15F0E806D8A441D001019B51D8F7
:10519900A412D09FC098F00001996B98BF9907019C
:1051A90001935100019A6F9B6B98519A1904E199E7
:1051B900519B19D8B418D0EE0E5E6E7F0E5F6EE863
:1051C900EC1AF0E80E5E6E7F0E5F6EE8EC1AF0AA3C
:1051D9000E5E6E7F0E5F6EE8EC1AF0A10E5E6E7FBA
:1051E9000E5F6EE8EC1AF000019F079FAF02D00333
:1051F9000E9F6FF60E5E6E7F0E5F6EE8EC1AF0A4DE
:105209000E5E6E7F0E5F6EE8EC1AF06BD0000E003A
:10521900019E6F9FC098F0996B98BF9907010197FC
:105229005100019A6F9B6B98519A1943E199519BCF
:1052390019D8B406D03ED0030E01D0010E9D6F13CC
:10524900D001019F510001986F996B9951000AD8BB
:10525900A40AD09851000AD8B4EED7010AD8B4EDFF
:10526900D7030AD8B4EAD7000E9C6F1AD0EE0E5EA7
:105279006E7F0E5F6EE8EC1AF0E80E5E6E7F0E5FD1
:105289006EE8EC1AF0AA0E5E6E7F0E5F6EE8EC1AFD
:10529900F0A10E5E6E7F0E5F6EE8EC1AF000019CC5
:1052A9002B9C51800A986F9D51800A985DD8B00E49
:1052B900D0DDD7A10E5E6E7F0E5F6EE8EC1AF000AE
:1052C900019E2B9E51800A7C0FD8A0A3D79F079FD0
:1052D900AF02D0030E9F6FFA0E5E6E7F0E5F6EE80F
:1052E900EC1AF095EC21F00009D8B4120039D70076
:1052F90001A36F000E0001A56FA3C0F3F0A0C0EEDB
:10530900F002EC14F02DEC30F04EEC16F00001ED4B
:1053190005D8B4F6D702EC14F0000E0001EC6FB317
:10532900D093EC15F095EC21F0E806D8A40AD01436
:10533900EC16F088EC22F0B5EC1BF093EC15F0A616
:10534900EC28F0010E5DD068EC1FF00009D8B40616
:10535900D014EC16F07FEC31F093EC15F0020E50FE
:10536900D0EBEC1CF00009D8B404D004EC1FF04CCD
:10537900EC1CF0030E45D03EEC2BF00009D8B41B11
:10538900D00DEC22F028EC18F0E806D8A412D000D1
:105399000E0001A46FA451030D410EF3245E6E7E2D
:1053A9000EF4205F6EE8EC1AF00001A42B0D0EA498
:1053B90065F1D728EC25F03EEC2BF00009D8B41D97
:1053C900D0000E0001A56FEC2BF20E5E6E7F0E5F12
:1053D9006EE8EC1AF0EE0E5E6E7F0E5F6EE8EC1A68
:1053E900F0F60E5E6E7F0E5F6EE8EC1AF0E60E5E6A
:1053F9006E7F0E5F6EE8EC1AF01AD04EEC16F004D0
:105409000E0001A56F14D0A551A16FA26BA2510086
:105419000AD8A40DD0A151000AD8B482D7010AD85C
:10542900B492D7030AD8B49CD7010AD8B4A4D70038
:1054390001ED05D8B403D0050EEC6525D002EC14B6
:10544900F00001EC2B050EEC6501D01200F20E5EA6
:105459006E7F0E5F6EE8EC1AF0EE0E5E6E7F0E5FE9
:105469006EE8EC1AF0F60E5E6E7F0E5F6EE8EC1ACF
:10547900F0E60E5E6E7F0E5F6EE8EC1AF04EEC16EB
:10548900F0000E0001A56F040EA519D8A4BCD72DF4
:10549900EC30F0090E0001A26F1E0EA16FE40EE8B8
:1054A9002EFED7A12FFCD7A22FFAD700F0120000A9
:1054B9000E2A6E010E256E010E256E010E1F242186
:1054C9006E000E2020226E21C0F6FF22C0F7FFF8E1
:1054D9006A050EF76403D00800F55005D0F6CFE948
:1054E900FFF7CFEAFFEF50270AD8A402D0010E0137
:1054F900D0000E276E48D0770E286E7F0E296E00D9
:105509000E2A6E040E07D0470E286E7F0E296E02F2
:105519000E2A6E020E266E69D0000E266E670E28C0
:105529006E7F0E296E000E07D0050E266E370E28E7
:105539006E7F0E296E020E2A6E58D0010E266E5706
:105549000E286E7F0EEED7020E2A6E030E266E27E8
:105559000E286E7F0E10D0020E2A6E170E286E7F4F
:105569000E296E000E256E41D0000E2A6E000E2502
:105579006E070E286E7F0E296E38D0020E2A6EF73E
:105589000E286E7E0EEDD71FC0F6FF20C0F7FFF87C
:105599006A050EF76403D00800F55005D0F6CFE987
:1055A900FFF7CFEAFFEF50216E226A2250000AD896
:1055B900A41CD02150420AD8B4C6D7060AD8B4B41C
:1055C900D7010AD8B4DAD7030AD8B4B7D70A0AD8A0
:1055D900B49AD7010AD8B4BFD71F0AD8B48CD70157
:1055E9000AD8B4C2D7060AD8B497D7000E236E16C4
:1055F900D0000E2A6E28C0F6FF29C0F7FF00EE0181
:10560900F00F0E0900F5CFEEFFE806FBE2100EE9F8
:105619005EE86AEA5A000ED2EC27F0232A8A0E21A4
:105629006E7A0E226E27502126000E22222A502140
:1056390026000E222221C0F6FF22C0F7FF0900F53D
:1056490050235CD8A0D5D72504D8A41200000E2475
:105659006E04D026509AEC24F0242A8A0E2724F6C8
:105669006EF76A7A0EF7220900F550245CD8B01259
:1056790000F0D7000E086E000E0A6E900E0A24D9AB
:105689006EDA6A010EDA22DF50D8B404D00A2A078A
:105699000E0A64F3D7000E0B6E0B50040DF3CF09FD
:1056A900F033D00A5009C001F0026A0126000E0247
:1056B90022030E0116000E02160B50040D900E0364
:1056C9006E010E046EF3500326F4500422015003B8
:1056D90024D96E02500420DA6EDF50056EE90E09F6
:1056E90024F66EF76A7D0EF7220800F5500518D8E2
:1056F900B402D0010E1200980E0924D96EDA6A019B
:105709000EDA22DF500826092A0B50016E026AD8E8
:105719009001360236D89001360236040E01260071
:105729000E02220950036E046A0150035C04508082
:105739000A056E0250800A0558D8A0B3D70B2A0172
:105749000E0B64AAD70850D8A4D4D7000E0A6EA0AD
:105759000E0A24D96EDA6A010EDA22DF50D8B404AF
:10576900D00A2A0B0E0A64F3D7000E086E000E0B3E
:105779006E0B50040DF3CF09F03CD00A5009C0015B
:10578900F0026A0126000E0222030E0116000E0223
:10579900160B50040D900E036E010E046E100E03CD
:1057A90026000E0422F3500326F45004220150036C
:1057B90024D96E02500420DA6EDF50056E095006B6
:1057C9006E076A100E0626000E0722E90E0624F659
:1057D9006E7D0E0720F76E0800F5500518D8A489CC
:1057E900D7AC0E0924D96EDA6A010EDA22DF500825
:1057F90026092A0B50016E026AD89001360236D862
:105809009001360236040E0126000E0222095003C9
:105819006E046A0150035C0450800A056E025080D0
:105829000A0558D8A0AAD70B2A020E0B64A1D708DB
:1058390050D8B404D0040E0818D8A45BD7000E12AF
:1058490000700ED36E9B8CE9EC14F030EC16F09DD1
:10585900EC18F0060E42EC1AF0C80E0001F06FA227
:10586900EC14F0FBEC13F000EC1CF0070E076E01D2
:105879000E086EF0C009F01FEC21F021EC15F000C4
:1058890001EA4BEB2BFE0EEA5DFF0EEB59D8A004A3
:10589900D0000EEB6F000EEA6F000EDE6F000EE215
:1058A9006FE25148EC1EF00001DD6FDDC012F0E23D
:1058B90051D6EC32F00001EF6FEF51D8B405D07F2B
:1058C900EC19F0010E0001DE6F640EEF19D8A40D7A
:1058D900D0000EE16FC8EC18F00001E12B080EE1D1
:1058E90065F9D7E2514AEC34F058D0FE0EEF19D8D9
:1058F900B454D0EF51D8B451D0EF51050D020EF385
:1059090026000EF422910EF324F66E7A0EF420F797
:105919006E0900F5CF33F00A00F5CF34F0EFEC1D36
:10592900F0000E0001E06F000EDF6FEF51050D0270
:105939000EF326000EF422910EF324F66E7A0EF47D
:1059490020F76E0900F5CF1FF00A00F5CF20F05CB3
:10595900EC2AF000EC1CF0070E076E010E086EF041
:10596900C009F01FEC21F00D0E0001DC6F2D0EDBDC
:105979006FD70EE82EFED7DB2FFCD7DC2FFAD70026
:10598900D00001DF4BE02BE0BFD0D7E05104E103A9
:105999000EDF5DD8A0CAD7000EF46F0001E22B0517
:1059A9000EE2657ED7DE05D8B40FEC24F0FBEC13CC
:1059B900F000EC1CF0070E076E010E086EF0C0092E
:1059C900F01FEC21F0680E0001DB6FE40EE82EFEFB
:1059D900D7DB2FFCD700F00001F505D8A450D70F6D
:1059E900EC1AF0E806D8A44BD7520E0001DC6F2B55
:1059F9000EDB6F000EE82EFED7DB2FFCD7DC2FFA6B
:105A0900D700F0020E4A6E010EAFEC1AF01EEC142C
:105A1900F036D7000E106E000E0F6E980E0F24D9B7
:105A29006E010E1020DA6E080E0F24E16E020E10C0
:105A390020E26EDFCFE7FF900E0F24D96E010E1022
:105A490020DA6E000E0F24E16E020E1020E26EDFE6
:105A5900CFE7FF0F4A102A10BEE0D7105004E10823
:105A69000E0F5CD8A0DAD7000E106E000E0F6EACC8
:105A79000E0F24D96E010E1020DA6E1C0E0F24E1D0
:105A89006E020E1020E26EDFCFE7FFA00E0F24D9C1
:105A99006E010E1020DA6E100E0F24E16E020E1048
:105AA90020E26EDFCFE7FF0F4A102A10BEE0D710C1
:105AB9005004E10C0E0F5CD8A0DAD7000E106E006E
:105AC9000E0F6EB80E0F24D96E010E1020DA6E2853
:105AD9000E0F24E16E020E1020E26EDFCFE7FF0FFA
:105AE9004A102A10BEEED7105004E1060E0F5CD8FA
:105AF900A0E8D7000E016E010EF9EC15F0310E0E7B
:105B09006E000E056E000E046E000E0424D96E029E
:105B19000E0520DA6EDF50016E0E50F9EC15F00E0D
:105B29002A044A052A05BEF0D7055004E1080E04E7
:105B39005CD8A0EAD7000E076E000E066E080E06A6
:105B490024D96E020E0720DA6EDF50016E0E50F96D
:105B5900EC15F00E2A064A072A07BEF0D7075004AB
:105B6900E1080E065CD8A0EAD7000E096E000E08FF
:105B79006E100E0824D96E020E0920DA6EDF50016C
:105B89006E0E50F9EC15F00E2A084A092A09BEF0E2
:105B9900D7095004E10C0E085CD8A0EAD7000E0B17
:105BA9006E000E0A6E1C0E0A24D96E020E0B20DA44
:105BB9006EDF50016E0E50F9EC15F00E2A0A4A0BF1
:105BC9002A0BBEF0D70B5004E10C0E0A5CD8A0EAF0
:105BD900D7000E0D6E000E0C6E280E0C24D96E0225
:105BE9000E0D20DA6EDF50016E0E50F9EC15F00E35
:105BF9002A0C4A0D2A0DBEF0D70D5005E1060E0CF0
:105C09005CD8B01200E9D71200000E2D6E010E2EDD
:105C19006E000E2F6E01010651D8A402D0000E129B
:105C290000000E326EECD03250D8B444D0030E329C
:105C390024D96EDA6A010EDA22DF50296E2A6A0245
:105C49000E3224D96EDA6A010EDA22DF502B6E2B5E
:105C590050295E000E2A5A120E2924236E000E2A9C
:105C690020246E000E266E030E256E77EC1AF023A3
:105C7900502E6E020E3224D96EDA6A010EDA22DF54
:105C890050296E2950050D020EF326000EF42269E3
:105C99000EF324F66E790EF420F76E0900F5CF2A7B
:105CA900F00900F5CF2BF02AC0F6FF2BC0F7FF084B
:105CB90000F5CF2FF0030E3224D96EDA6A010EDA1D
:105CC90022DF50296E2950050D020EF326000EF42D
:105CD90022690EF324F66E790EF420F76E0900F5A9
:105CE900CF2AF00900F5CF2BF02AC0F6FF2BC0F719
:105CF900FF0800F5CF2CF0040E3224D96EDA6A01C0
:105D09000EDA22DF50296E2950050D020EF3260006
:105D19000EF422690EF324F66E790EF420F76E095B
:105D290000F5CF2AF00900F5CF2BF02AC0F6FF2B9A
:105D3900C0F7FF0800F5CF30F030502C18D8B40761
:105D4900D02E50D8A45BD030502F18D8A457D001EA
:105D59000E2D6E040E3224D96EDA6A010EDA221281
:105D69000EDE18D8A431D032C031F031BE0CD003C8
:105D79000E3124D96EDA6A010EDA22120EDE18D833
:105D8900A402D03106F2D73128D8A405D0010106E2
:105D99002B010E036F07D0030E3124D96EDA6A0185
:105DA9000EDA22DF2A3128326E09D0030E3224D9C5
:105DB9006EDA6A010EDA22010EDF6E322A325001E2
:105DC90001065DD8A021D0F1D7040E3224D96EDAAC
:105DD9006A010EDA22DF2A3250020F326E09D0032D
:105DE9000E3224D96EDA6A010EDA22010EDF6E3222
:105DF9002A32500101065DD8A007D0F1D7322A0115
:105E0900010651325CD8A00FD72D50120057C0336C
:105E1900F058C034F0EFEC1DF0FED057C007F05831
:105E2900C008F0FC0E096E7F0E0A6E96EC1DF0009C
:105E390009D8A40FD0EC0E4A6E7F0E4B6EF40E4CAF
:105E49006E7F0E4D6E9E0E4E6E7F0E4F6E3CEC2099
:105E5900F0120057C007F058C008F0BF0E096E7F56
:105E69000E0A6E96EC1DF00009D8A40FD0A70E4AB1
:105E79006E7F0E4B6EB30E4C6E7F0E4D6EE60E4E60
:105E89006E7F0E4F6E3CEC20F01200EC0E4A6E7FD6
:105E99000E4B6EF40E4C6E7F0E4D6E9E0E4E6E7F47
:105EA9000E4F6E3CEC20F0EC0E4A6E7F0E4B6EF4FA
:105EB9000E4C6E7F0E4D6E9E0E4E6E7F0E4F6E3CDB
:105EC900EC20F0120057C007F058C008F0FA0E098C
:105ED9006E7F0E0A6E96EC1DF00009D8A40FD0F65D
:105EE9000E4A6E7F0E4B6EA40E4C6E7F0E4D6EA148
:105EF9000E4E6E7F0E4F6E3CEC20F0120057C0071D
:105F0900F058C008F0BC0E096E7F0E0A6E96EC1DA3
:105F1900F00009D8A40FD0B60E4A6E7F0E4B6EEA78
:105F29000E4C6E7F0E4D6EE80E4E6E7F0E4F6E3C20
:105F3900EC20F01200F60E4A6E7F0E4B6EA40E4C4A
:105F49006E7F0E4D6EA10E4E6E7F0E4F6E3CEC2095
:105F5900F0F60E4A6E7F0E4B6EA40E4C6E7F0E4D00
:105F69006EA10E4E6E7F0E4F6E3CEC20F012005764
:105F7900C007F058C008F0F80E096E7F0E0A6E9639
:105F8900EC1DF00009D8A40ED0F20E4A6E7F0E4B1C
:105F99006EAD0E4C6E7F0E4D6EAA0E4E6E7F0E4F7D
:105FA9006E3CEC20F057C007F058C008F0B90E0954
:105FB9006E7F0E0A6E96EC1DF00009D8A40FD0B0C2
:105FC9000E4A6E7F0E4B6EF00E4C6E7F0E4D6EEECE
:105FD9000E4E6E7F0E4F6E3CEC20F01200F20E4A10
:105FE9006E7F0E4B6EAD0E4C6E7F0E4D6EAA0E4E31
:105FF9006E7F0E4F6E3CEC20F0F20E4A6E7F0E4B18
:106009006EAD0E4C6E7F0E4D6EAA0E4E6E7F0E4F0C
:106019006E3CEC20F0120057C0F6FF58C0F7FF089D
:1060290000F550596E5A6A5A50000AD8A40AD05934
:1060390050580AD8B49CD7010AD8B444D7030AD80F
:10604900B4ECD657C04AF058C04BF000EC27F01218
:1060590000000E5B6E000E5C6E000E5D6E0001F2BC
:1060690051D8A411D0000EF26F000EF16FFBEC13A2
:10607900F000EC1CF0070E076E010E086EF0C00967
:10608900F01FEC21F01200030EF117F151D8B4EA18
:10609900D7FF0E576EFF0E586EF151596E5A6A5757
:1060A90050592658505A228E0E5924F66E7A0E5A95
:1060B90020F76E0800F5CF5CF0F2C05BF0000EF23D
:1060C9006F000EF16FFFD05B0E076E000E086EFCBD
:1060D9000E096E7F0E0A6E96EC1DF00009D8A40F0A
:1060E900D0EC0E4A6E7F0E4B6EF40E4C6E7F0E4D49
:1060F9006E9E0E4E6E7F0E4F6E3CEC20F0B7D75B56
:106109000E076E000E086EBF0E096E7F0E0A6E96A0
:10611900EC1DF00009D8A40FD0A70E4A6E7F0E4BD4
:106129006EB30E4C6E7F0E4D6EE60E4E6E7F0E4FA9
:106139006E3CEC20F09BD7EC0E4A6E7F0E4B6EF452
:106149000E4C6E7F0E4D6E9E0E4E6E7F0E4F6E3C48
:10615900EC20F0EC0E4A6E7F0E4B6EF40E4C6E7F07
:106169000E4D6E9E0E4E6E7F0E4F6E3CEC20F07EF5
:10617900D75B0E076E000E086EFA0E096E7F0E0AC7
:106189006E96EC1DF00009D8A40FD0F60E4A6E7F6A
:106199000E4B6EA40E4C6E7F0E4D6EA10E4E6E7F91
:1061A9000E4F6E3CEC20F062D75B0E076E000E08B6
:1061B9006EBC0E096E7F0E0A6E96EC1DF00009D8B2
:1061C900A40FD0B60E4A6E7F0E4B6EEA0E4C6E7F50
:1061D9000E4D6EE80E4E6E7F0E4F6E3CEC20F04673
:1061E900D7F60E4A6E7F0E4B6EA40E4C6E7F0E4D87
:1061F9006EA10E4E6E7F0E4F6E3CEC20F0F60E4AED
:106209006E7F0E4B6EA40E4C6E7F0E4D6EA10E4E20
:106219006E7F0E4F6E3CEC20F029D75B0E076E00A7
:106229000E086EF80E096E7F0E0A6E96EC1DF000D0
:1062390009D8A40FD0F20E4A6E7F0E4B6EAD0E4CEC
:106249006E7F0E4D6EAA0E4E6E7F0E4F6E3CEC2089
:10625900F00DD75B0E076E000E086EB90E096E7F42
:106269000E0A6E96EC1DF00009D8A40FD0B00E4AA4
:106279006E7F0E4B6EF00E4C6E7F0E4D6EEE0E4E17
:106289006E7F0E4F6E3CEC20F0F1D6F20E4A6E7F17
:106299000E4B6EAD0E4C6E7F0E4D6EAA0E4E6E7F7E
:1062A9000E4F6E3CEC20F0F20E4A6E7F0E4B6EAD37
:1062B9000E4C6E7F0E4D6EAA0E4E6E7F0E4F6E3CCB
:1062C900EC20F0D4D65B50576E586A5850000AD863
:1062D900A40AD05750580AD8B4A0D7010AD8B4484C
:1062E900D7030AD8B4F0D65B0E4A6E000E4B6E0087
:1062F900EC27F0BCD661EC14F0E806D8B412004BD8
:10630900D1000E026E640E016E0EEC15F0E806D88F
:10631900B41200000E00019D6F68EC1FF00009D84F
:10632900B43AD1000E026E640E016E0EEC15F0E85F
:1063390006D8B41200ACEC15F000019D510101A082
:1063490019D8B412D000019D510101A119D8B40C7A
:10635900D000019D510101A219D8B406D000019DB8
:10636900510101A319D8A458D0AC0E00019D25D91B
:106379006EDA6A010EDA22DF50D8A419D0940E9D84
:1063890025D96EDA6A010EDA22DF50986F996BA06F
:106399000E9D25D96EDA6A010EDA22DF509A6F9ABC
:1063A90051985F000E995B98519911D8B4F0D002B9
:1063B9000E9D610CD0FA0E5E6E7F0E5F6EE8EC1AD0
:1063C900F0FA0E5E6E7F0E5F6EE8EC1AF000019D2A
:1063D900B112D0000E9E6F9E51030DA30EF3245EE1
:1063E9006E7E0EF4205F6EE8EC1AF000019E2B071A
:1063F9000E9E65F1D711D0000E9E6F9E51030D8B35
:106409000EF3245E6E7E0EF4205F6EE8EC1AF00047
:10641900019E2B070E9E65F1D7020E00019D610CAE
:10642900D0FA0E5E6E7F0E5F6EE8EC1AF0FA0E5E21
:106439006E7F0E5F6EE8EC1AF0000E00019E6F9DF4
:10644900510101A619D8A455D0000E00019B6F0176
:1064590001B251D8A41ED000019DB10DD0EA0E5E43
:106469006E7F0E5F6EE8EC1AF0E80E5E6E7F0E5FCF
:106479006EE8EC1AF00CD0A40E5E6E7F0E5F6EE82B
:10648900EC1AF0A10E5E6E7F0E5F6EE8EC1AF0005A
:10649900019B2B00019B519DC098F0996B98270097
:1064A9000E992398A112D0000E9C6F9C51030DA345
:1064B9000EF3245E6E7E0EF4205F6EE8EC1AF00097
:1064C900019C2B070E9C65F1D711D0000E9C6F9C87
:1064D90051030D8B0EF3245E6E7E0EF4205F6EE881
:1064E900EC1AF000019C2B070E9C65F1D7000E9D5C
:1064F9006F4ED0F60E5E6E7F0E5F6EE8EC1AF003FB
:106509000E00019E19D8A43FD0030E9D19D8A43BB3
:10651900D0ACEC15F0000E00019E6FA00E9E25D99F
:106529006EDA6A010EDA229E51DE18D8A404D09ED2
:106539005103089D6F04D09E2B030E9E65EED70074
:106549000E9E6F08D0FA0E5E6E7F0E5F6EE8EC1A33
:10655900F000019E2B9D519E5DD8A0F4D7000E9EA0
:106569006F9E51030D8B0EF3245E6E7E0EF4205F39
:106579006EE8EC1AF000019E2B070E9E65F1D70517
:106589000E9E6F000E9D6F9E2B030E9E6558D79D24
:106599002B030E9D65C1D668EC1FF00009D8B41213
:1065A90000AFD6156E000E186E000E196E000E1A89
:1065B9006E090E1218D8A404D0400E186E640E127B
:1065C900001250D8A404D0400E186E000E12000E0E
:1065D9000E1260B7D0090E1264B4D098D04D0E3A9D
:1065E900D0530E1CD0196E19D14D0E18D0270E7626
:1065F900D01250136E146A1450000AD8A40ED11385
:10660900500A0AD8B4EBD7010AD8B4EAD7070AD88E
:10661900B4EBD7010AD8B4EAD700D1450E186E00F9
:106629000EE1D7270E1BD0186EF8D01250136E1436
:106639006A1450000AD8A4F1D013500A0AD8B4CE6B
:10664900D7010AD8B4EAD7070AD8B4CED742D04579
:106659000E01D0530E186E270EC5D7000E196E45C0
:106669000EE2D71250136E146A1450000AD8A4D53A
:10667900D013500A0AD8B4B4D7010AD8B4E8D70756
:106689000AD8B4E7D7010AD8B4E8D7C7D01250134B
:106699006E146A1450000AD8A4C0D013500A0AD83C
:1066A900B4A3D7010AD8B4B9D7070AD8B497D71170
:1066B900D01250136E146A1450000AD8A4AED01325
:1066C900500A0AD8B4C6D7010AD8B4A7D7070AD836
:1066D900B487D7010AD8B4A5D7A0D0000E196E5334
:1066E9000EA2D71250136E146A1450000AD8A4953A
:1066F900D013500A0AD8B472D7010AD8B4AAD70756
:106709000AD8B472D7010AD8B4E8D787D01550137C
:106719006E146A1450000AD8A480D01350000AD805
:10672900B467D7010AD8B481D7030AD8B49AD70174
:106739000AD8B4ACD7070AD8B4BBD7010AD8B4D1A0
:10674900D76CD0040E126402D0000E01D0270E19A6
:106759006E020E1518D8A446D0040E126402D02772
:106769000E01D0000E196E3ED012C013F0FF0E13A9
:1067790026030E131613288EEC16F055D712C013E4
:10678900F0FF0E1326030E13161328AFEC16F04B69
:10679900D712C013F0FF0E1326030E13161328D0B9
:1067A900EC16F041D712C013F0FF0E1326030E1397
:1067B900161328F1EC16F037D712C013F0FF0E1399
:1067C90026030E1316132812EC17F02DD712C01337
:1067D900F0FF0E1326030E1316132833EC17F023BC
:1067E900D7FE0E12001550136E146A1450000AD801
:1067F900A4F7D71350000AD8B4B7D7010AD8B4BE42
:10680900D7030AD8B4C5D7010AD8B4CCD7070AD850
:10681900B4D3D7010AD8B4DAD7E3D7400E1818D8B9
:10682900B4DFD7000E176E000E166E180E076E0035
:106839000E086E16C001F017C002F0000E046E05B6
:106849000E036EFBEC14F0020E0126000E022291DB
:106859000E0124F66E7A0E0220F76E0900F5CF09B3
:10686900F00A00F5CF0AF096EC1DF00009D8A40251
:10687900D016501200164A172A17BED7D71750B08C
:10688900E1260E165CD8B0ACD7D0D70101BE6F8C0B
:10689900D10101052B040E056539D0000E056F36AF
:1068A900D0000EF06F010E01018F6F060E42EC1A37
:1068B900F0070E076E010E086EF0C009F01FEC21FB
:1068C900F0000E96EC17F0E806D8A4FAD7C80E0027
:1068D90001F06F1200000E01018F6F640E0001F0CC
:1068E9006F1200010E01018F6F640E0001F06F122B
:1068F90000000E01018F6FC80E0001F06F12000138
:106909000E01018F6FC80E0001F06F1200055100D2
:1069190001D86FD96BD951000AD8A41200D85100F7
:106929000AD8B4BED7010AD8B4D5D7030AD8B4D97E
:10693900D7010AD8B4DDD7070AD8A41200E0D701D5
:106949000EAAEC20F0EAC037F0EBC038F070EC1B6F
:10695900F029EC14F012003EEC2BF00009D8B41227
:1069690000D7EC14F0010E0001F36F4EEC16F02184
:10697900EE90F000EE01F02D0EDBCFEBFFE806FC08
:10698900E2C40E2F6E010E306EBAEC25F0000E0136
:1069990001C36F65D036EC15F00101BF6F020E9689
:1069A900EC17F0E806D8A402D0020E56D0010E0169
:1069B90001066501D058D0BF51D8A451D021EEC4E9
:1069C900F000EE01F02D0EDBCFEBFFE806FCE290C4
:1069D9000E2F6E010E306EBAEC25F0000E0101C1CA
:1069E9006F000EC06F21D0030E0101C025D96E01C1
:1069F9000EC121DA6EDF500001D86FD851050D02A2
:106A09000EF326000EF422690EF324F66E790EF4C5
:106A190020F76E0900F5CF33F00A00F5CF34F0EF17
:106A2900EC1DF00101C04BC12B06510001D86FD9F3
:106A39006B0101C0510001D85DD951800ADA6F019B
:106A490001C151800A0001DA59D8B0CDD73EEC2BEB
:106A5900F00009D8A404D0010E0101C36F04D001CC
:106A69000E0101066597D721EEC4F000EE01F02D65
:106A79000EDBCFEBFFE806FCE2900E2F6E010E3025
:106A89006EBAEC25F00101C351D8A407D0020E005B
:106A990001A06F010E7CEC29F01200020EC319D877
:106AA900A407D0020E0001A06F000E7CEC29F012A1
:106AB90000C305D8A41200040E42EC1AF0070E0711
:106AC9006E010E086EF0C009F01FEC21F0520E00A5
:106AD90001D96F2B0ED86F000EE82EFED7D82FFCE8
:106AE900D7D92FFAD700F000EC1CF0070E076E017A
:106AF9000E086EF0C009F01FEC21F0000E0101C272
:106B09006F1FD0030EC225D96EDA6A010EDA22DFB1
:106B1900500001D86FD851050D020EF326000EF46E
:106B290022690EF324F66E790EF420F76E0900F54A
:106B3900CF57F00A00F5CF58F00BEC2FF00101C246
:106B49002BC251065DD8A01200DCD70EEC2DF01235
:106B5900005CEC26F012000001EA4BEB2BFE0EEA7A
:106B69005DFF0EEB59D8A004D0000EEB6F000EEAC2
:106B79006F050E4A6E030EAFEC1AF0E806D8B40F93
:106B8900D0050EAAEC20F0E806D8B409D0EAC0A6D0
:106B9900F0EBC0A7F0A3EC1EF0E806D8A4DCD76D93
:106BA900EC14F000EC1CF012000101BE510001D8F8
:106BB9006FD96BD951000AD8A41200D851000AD84C
:106BC900B467D6010AD8B4BBD6030AD8B4C4D6016F
:106BD9000AD8B4BBD7070AD8B4BBD7010AD8A412BC
:106BE90000BAD7000E0001616F000E606F93D121CA
:106BF900EE90F010EE62F02D0EDBCFE3FFE806FC1D
:106C0900E2000E916F000E906F29C0F6FF2AC0F7BF
:106C1900FF0900F5CF2BF00900F5CF2CF090512B8F
:106C29002691512C222BC0F6FF2CC0F7FFF86A05DC
:106C39000EF76403D00800F55005D0F6CFE9FFF749
:106C4900CFEAFFEF502D6E2E6A620E2D24D96E0009
:106C59000E2E20DA6E900E00019025E16E010E9144
:106C690021E26EDFCFE7FF980E9025D96E010E91D4
:106C790021DA6E29C0F6FF2AC0F7FF0900F5CF2BEC
:106C8900F00900F5CF2CF090512B2691512C2208B8
:106C99000E2B26000E2C222BC0F6FF2CC0F7FFF876
:106CA9006A050EF76403D00800F55005D0F6CFE960
:106CB900FFF7CFEAFFEF502D6E29C0F6FF2AC0F784
:106CC900FF0900F5CF2EF00900F5CF2FF000019054
:106CD900512E2691512F222EC0F6FF2FC0F7FFF813
:106CE9006A050EF76403D00800F55005D0F6CFE920
:106CF900FFF7CFEAFFEF50306E316A080E302600F9
:106D09000E3122620E3024E16E000E3120E26EE770
:106D190050326E32502D24236E246A2436000E26FA
:106D29006E030E256E77EC1AF02350DF6E0001908A
:106D39004B912B91BF69D7915104E1080E905DD811
:106D4900A063D7000E916F000E906F29C0F6FF2A3D
:106D5900C0F7FF0900F5CF2BF00900F5CF2CF09013
:106D6900512B2691512C22100E2B26000E2C222B52
:106D7900C0F6FF2CC0F7FFF86A050EF76403D008C8
:106D890000F55005D0F6CFE9FFF7CFEAFFEF502D18
:106D99006E2E6A100E2D26000E2E22620E2D24D97B
:106DA9006E000E2E20DA6EA00E00019025E16E0114
:106DB9000E9121E26EDFCFE7FFAC0E9025D96E016F
:106DC9000E9121DA6E29C0F6FF2AC0F7FF0900F5F6
:106DD900CF2BF00900F5CF2CF090512B2691512C97
:106DE900221C0E2B26000E2C222BC0F6FF2CC0F7DE
:106DF900FFF86A050EF76403D00800F55005D0F6D0
:106E0900CFE9FFF7CFEAFFEF502D6E29C0F6FF2A31
:106E1900C0F7FF0900F5CF2EF00900F5CF2FF000DC
:106E29000190512E2691512F22100E2E26000E2F41
:106E3900222EC0F6FF2FC0F7FFF86A050EF764038C
:106E4900D00800F55005D0F6CFE9FFF7CFEAFFEFFC
:106E590050306E316A1C0E3026000E3122620E301F
:106E690024E16E000E3120E26EE7502D24010BDF84
:106E79006E0001904B912B91BF68D7915104E10CA1
:106E89000E905DD8A062D7000E916F000E906F2909
:106E9900C0F6FF2AC0F7FF0900F5CF2BF00900F56E
:106EA900CF2CF090512B2691512C22280E2B260005
:106EB9000E2C222BC0F6FF2CC0F7FFF86A050EF73F
:106EC9006403D00800F55005D0F6CFE9FFF7CFEA03
:106ED900FFEF502D6E2E6A280E2D26000E2E2262EF
:106EE9000E2D24D96E000E2E20DA6EB80E000190F8
:106EF90025E16E010E9121E26EDFCFE7FF904B9104
:106F09002B91BFC5D7915104E1060E905DD8A0BF62
:106F1900D7604B612B040E29242B6E000E2A202CDE
:106F29006E2BC0F6FF2CC0F7FF0800F5502D6E2E12
:106F39006A2D50605D6151800A2F6E2E50800A2F94
:106F490058D8B0120054D60101A451020D520E01B5
:106F59006E7A0E026EF3500126F4500222B05101EE
:106F690026000E022201C0F6FF02C0F7FF0800F555
:106F7900CF3EF1A751020D520E016E7A0E026EF349
:106F8900500126F4500222B3510126000E022201BB
:106F9900C0F6FF02C0F7FF0800F5CF42F1A5510284
:106FA9000D520E016E7A0E026EF3500126F4500254
:106FB90022B1510126000E022201C0F6FF02C0F7DC
:106FC900FF0800F5CF40F1A651020D520E016E7A6D
:106FD9000E026EF3500126F4500222B2510126002E
:106FE9000E022201C0F6FF02C0F7FF0800F5CF44E8
:106FF900F1A651020D520E016E7A0E026EF3500186
:1070090026F4500222B2C103F0010E0326010E0339
:107019001603500126000E022201C0F6FF02C0F736
:10702900FF0800F5CF47F1A351020D520E016E7A08
:107039000E026EF3500126F4500222AF51012600D0
:107049000E022201C0F6FF02C0F7FF0800F5CF4B80
:10705900F1A251020D520E016E7A0E026EF3500129
:1070690026F4500222AE510126000E022201C0F67A
:10707900FF02C0F7FF0800F5CF49F1AA51020D52EE
:107089000E016E7A0E026EF3500126F4500222B6FA
:10709900C103F0010E0326010E0316035001260059
:1070A9000E022201C0F6FF02C0F7FF0800F5CF4D1E
:1070B900F1A551020D520E016E7A0E026EF35001C6
:1070C90026F4500222B1C103F0010E0326010E037A
:1070D9001603500126000E022201C0F6FF02C0F776
:1070E900FF0800F5CF62F1A251020D520E016E7A2E
:1070F9000E026EF3500126F4500222AEC103F001D4
:107109000E0326010E031603500126000E0222016A
:10711900C0F6FF02C0F7FF0800F5CF66F1A15102E2
:107129000D520E016E7A0E026EF3500126F45002D2
:1071390022ADC103F0010E0326010E03160350010F
:1071490026000E022201C0F6FF02C0F7FF0800F573
:10715900CF64F1A951020D520E016E7A0E026EF33F
:10716900500126F4500222B5C103F0010E03260195
:107179000E031603500126000E022201C0F6FF027B
:10718900C0F7FF0800F5CF68F1A451020D520E01B6
:107199006E7A0E026EF3500126F4500222B0C1033A
:1071A900F0010E0326010E031603500126000E02FC
:1071B9002201C0F6FF02C0F7FF0800F5CF59F1A17F
:1071C90051020D520E016E7A0E026EF3500126F431
:1071D900500222AD510126000E022201C0F6FF0223
:1071E900C0F7FF0800F5CF5DF1A051020D520E0165
:1071F9006E7A0E026EF3500126F4500222AC510150
:1072090026000E022201C0F6FF02C0F7FF0800F5B2
:10721900CF5BF1A851020D520E016E7A0E026EF388
:10722900500126F4500222B4C103F0010E032601D5
:107239000E031603500126000E022201C0F6FF02BA
:10724900C0F7FF0800F5CF5FF1A751020D520E01FB
:107259006E7A0E026EF3500126F4500222B3C10376
:10726900F0010E0326010E031603500126000E023B
:107279002201C0F6FF02C0F7FF0800F5CF50F1A0C8
:1072890051020D520E016E7A0E026EF3500126F470
:10729900500222ACC103F0010E0326010E031603AE
:1072A900500126000E022201C0F6FF02C0F7FF08B6
:1072B90000F5CF54F1A351020D520E016E7A0E0260
:1072C9006EF3500126F4500222AFC103F0010E0300
:1072D90026010E031603500126000E022201C0F6F4
:1072E900FF02C0F7FF0800F5CF52F1AB51020D5272
:1072F9000E016E7A0E026EF3500126F4500222B787
:10730900C103F0010E0326010E03160350012600E6
:107319000E022201C0F6FF02C0F7FF0800F5CF56A2
:10732900F1AA51020D520E016E7A0E026EF350014E
:1073390026F4500222B6510126000E022201C0F69F
:10734900FF02C0F7FF0800F5CF6BF1AB51020D52F8
:107359000E016E7A0E026EF3500126F4500222B726
:10736900510126000E022201C0F6FF02C0F7FF08F4
:1073790000F5CF6FF1A951020D520E016E7A0E027E
:107389006EF3500126F4500222B5510126000E0277
:107399002201C0F6FF02C0F7FF0800F5CF6DF1A882
:1073A90051020D520E016E7A0E026EF3500126F44F
:1073B900500222B4510126000E022201C0F6FF023A
:1073C900C0F7FF0800F5CF71F112000101905103D8
:1073D9000D6A0E296E7A0E2A6EF3502926F4502A68
:1073E9002298512926000E2A2229C0F6FF2AC0F721
:1073F900FF0800F5CF3FF19151030D6A0E296E7A0E
:107409000E2A6EF3502926F4502A22995129260072
:107419000E2A2229C0F6FF2AC0F7FF0800F5CF3D42
:10742900F19351030D6A0E296E7A0E2A6EF35029D3
:1074390026F4502A229B512926000E2A2229C0F619
:10744900FF2AC0F7FF0800F5CF45F19251030D6AF5
:107459000E296E7A0E2A6EF3502926F4502A229AA2
:10746900512926000E2A2229C0F6FF2AC0F7FF0853
:1074790000F5CF43F1020E9B25236E246A000E24EA
:1074890022000E266E030E256E77EC1AF001019389
:1074990051030D6A0E296E7A0E2A6EF3502926F4CD
:1074A900502A222350292624502A2229C0F6FF2AAD
:1074B900C0F7FF0800F5CF48F1010E9A25236E2485
:1074C9006A000E2422000E266E030E256E77EC1A32
:1074D900F001019251030D6A0E296E7A0E2A6EF39C
:1074E900502926F4502A222350292624502A2229B9
:1074F900C0F6FF2AC0F7FF0800F5CF46F1010E9F3D
:1075090025236E246A000E2422000E266E030E2502
:107519006E77EC1AF001019751030D6A0E296E7A04
:107529000E2A6EF3502926F4502A222350292624A4
:10753900502A2229C0F6FF2AC0F7FF0800F5CF4ECE
:10754900F1020E9E25236E246A000E2422000E26C7
:107559006E030E256E77EC1AF001019651030D6A40
:107569000E296E7A0E2A6EF3502926F4502A222308
:1075790050292624502A2229C0F6FF2AC0F7FF08DD
:1075890000F5CF4CF1020E9A25236E246A000E24D1
:1075990022000E266E030E256E77EC1AF001019279
:1075A90051030D6A0E296E7A0E2A6EF3502926F4BC
:1075B900502A222350292624502A2229C0F6FF2A9C
:1075C900C0F7FF0800F5CF63F1010E9925236E245A
:1075D9006A000E2422000E266E030E256E77EC1A21
:1075E900F001019151030D6A0E296E7A0E2A6EF38C
:1075F900502926F4502A222350292624502A2229A8
:10760900C0F6FF2AC0F7FF0800F5CF61F1010E9E11
:1076190025236E246A000E2422000E266E030E25F1
:107629006E77EC1AF001019651030D6A0E296E7AF4
:107639000E2A6EF3502926F4502A22235029262493
:10764900502A2229C0F6FF2AC0F7FF0800F5CF69A2
:10765900F1020E9D25236E246A000E2422000E26B7
:107669006E030E256E77EC1AF001019551030D6A30
:107679000E296E7A0E2A6EF3502926F4502A2223F7
:1076890050292624502A2229C0F6FF2AC0F7FF08CC
:1076990000F5CF67F1020E9925236E246A000E24A6
:1076A90022000E266E030E256E77EC1AF001019169
:1076B90051030D6A0E296E7A0E2A6EF3502926F4AB
:1076C900502A222350292624502A2229C0F6FF2A8B
:1076D900C0F7FF0800F5CF5AF1010E9825236E2453
:1076E9006A000E2422000E266E030E256E77EC1A10
:1076F900F001019051030D6A0E296E7A0E2A6EF37C
:10770900502926F4502A222350292624502A222996
:10771900C0F6FF2AC0F7FF0800F5CF58F1010E9D0A
:1077290025236E246A000E2422000E266E030E25E0
:107739006E77EC1AF001019551030D6A0E296E7AE4
:107749000E2A6EF3502926F4502A22235029262482
:10775900502A2229C0F6FF2AC0F7FF0800F5CF609A
:10776900F1020E9C25236E246A000E2422000E26A7
:107779006E030E256E77EC1AF001019451030D6A20
:107789000E296E7A0E2A6EF3502926F4502A2223E6
:1077990050292624502A2229C0F6FF2AC0F7FF08BB
:1077A90000F5CF5EF1020E9825236E246A000E249F
:1077B90022000E266E030E256E77EC1AF001019059
:1077C90051030D6A0E296E7A0E2A6EF3502926F49A
:1077D900502A222350292624502A2229C0F6FF2A7A
:1077E900C0F7FF0800F5CF51F1010E9B25236E2448
:1077F9006A000E2422000E266E030E256E77EC1AFF
:10780900F001019351030D6A0E296E7A0E2A6EF367
:10781900502926F4502A222350292624502A222985
:10782900C0F6FF2AC0F7FF0800F5CF4FF1010E9C03
:1078390025236E246A000E2422000E266E030E25CF
:107849006E77EC1AF001019451030D6A0E296E7AD4
:107859000E2A6EF3502926F4502A22235029262471
:10786900502A2229C0F6FF2AC0F7FF0800F5CF5792
:10787900F1020E9F25236E246A000E2422000E2693
:107889006E030E256E77EC1AF001019751030D6A0C
:107899000E296E7A0E2A6EF3502926F4502A2223D5
:1078A90050292624502A2229C0F6FF2AC0F7FF08AA
:1078B90000F5CF55F19751030D6A0E296E7A0E2AFC
:1078C9006EF3502926F4502A229F512926000E2AA8
:1078D9002229C0F6FF2AC0F7FF0800F5CF6CF19600
:1078E90051030D6A0E296E7A0E2A6EF3502926F479
:1078F900502A229E512926000E2A2229C0F6FF2A43
:10790900C0F7FF0800F5CF6AF19451030D6A0E29FB
:107919006E7A0E2A6EF3502926F4502A229C512998
:1079290026000E2A2229C0F6FF2AC0F7FF0800F513
:10793900CF72F19551030D6A0E296E7A0E2A6EF3F4
:10794900502926F4502A229D512926000E2A22293F
:10795900C0F6FF2AC0F7FF0800F5CF70F11200004A
:10796900E97D997F008D7DF67F01317DEE7F0103F1
:107979007DEC7F015F7DE87F01BB7DF27F01D57CD6
:10798900E67F018D7DB67F03317DAA7F03037DA745
:107999007F035F7DA17F03BB7DB07F03D57C9E7F85
:1079A900038D7DDA7F02317DCE7F02037DCB7F029D
:1079B9005F7DC57F02BB7DD47F02D57CC27F02007B
:1079C9000102030405060700000000000000000191
:1079D9000203000405060708090A0B010101010059
:1079E900000000000000000004010203050001027C
:1079F9000304050607000000000000000000010262
:107A0900030407060B08050A09000000000001002D
:107A19000100010001040100030502000102030441
:107A2900050607000000000000000000010203082D
:107A39000504070A09060B00000000010001000106
:107A4900000100030002050401030403020102010D
:107A590004000300020001000405030502050105F5
:107A690004000304000203000102000401050403E9
:107A790005030205020105010400010205080706C4
:107A890003010B0B01003227E97D997F00900193D7
:107A99007F008D7DF67F015F7DE87F01317DEE7F7F
:107AA90001BB7DF27F01037DEC7F01D57CE67F017F
:107AB9008D7DB67F035F7DA17F03317DAA7F03BBE7
:107AC9007DB07F03037DA77F03D57C9E7F038D7DDA
:107AD900DA7F025F7DC57F02317DCE7F02BB7DD417
:107AE9007F02037DCB7F02D57CC27F024B7CEA7F7C
:107AF90001797CF47F01A77CF07F014B7CC87F0270
:107B0900797CD77F02A77CD17F024B7CA47F037944
:107B19007CB37F03A77CAD7F03EF7BF87F011D7CDE
:107B2900FA7F01C17BFC7F01EF7BB97F031D7CBC20
:107B39007F03C17BBF7F03EF7BDD7F021D7CE07F7D
:107B490002C17BE37F025200004C2700440000522F
:107B590027004427004C000044000052000044273D
:107B69000052270052270044270052000044000019
:107B79004C00004427005227004400005200004CEA
:107B890027004627004500004600004D000044320A
:107B9900004D270045270046270045000046000004
:107BA90000000000000000000000000000000000CC
:107BB90000000000000000000400030705010206A0
:107BC90001020102020102010804060A0007030B6F
:107BD900010502090101010101010101010101017F
:107BE900040100030502030206070001050402015E
:107BF9000201010201020705090B06020A03040139
:107C09000800000000000100010001000100010559
:107C19000200040303000102070405060000000036
:107C29000000000003000102070405060B08090A09
:107C3900010101010000000000000000000203042E
:107C49000105000102030405060700000000000009
:107C59000000010203000405060708090A0B0101D7
:107C690001010000000000000000000401020305FA
:107C790000010203040506070000000000000000DF
:107C8900000102030407060B08050A0900000000A9
:107C990000010001000100010401000305020001C7
:107CA90002030405060700000000000000000001AF
:107CB9000203080504070A09060B00000000010079
:107CC900010001000100030002050401010502038E
:107CD9000004060701020000020100000408020373
:107CE9000105060700090A0B010100000100000057
:107CF9000100000000010203040500010307040557
:107D0900020600000102000002010001060A040542
:107D190003070809020B000001010000010000002F
:107D2900010000010203040504010200070506031E
:107D390002000001010000020B0102070405060010
:107D490008090A030000000000000000000000000C
:107D590000010203040500010203050607040000EF
:107D69000000000000000001020304050607090ADB
:107D79000B080000000000000000000000000001E6
:107D890002030405030001020405060700000000C0
:107D990000000000000102030704050608090A0B98
:107DA90000000000000000000000000000010203C4
:107DB9000405000206030401050700010200000290
:107DC9000100000509030402060708010A0B000067
:107DD900000000000000000000000001020304058B
:107DE900000102030405060700000000000000006E
:107DF900000102030405060708090A0B0000000038
:107E09000000000000000000000102030405520008
:107E19000044000052270044270052270042000076
:107E290052320044270052270044270052000044E0
:107E390000005227004227004C27004427004C002D
:107E4900004427004C27004432004C000042000047
:107E5900440000422700440000420000443200422E
:107E690027000100020000000201000102000102D6
:107E790001020202010102020002010100010000E7
:107E890000005527004C27005500004C0000550004
:107E99000046000055270046270055000052000003
:107EA9005527005227005527004627005500004650
:107EB90000004D32004427004D00004432004D2798
:107EC900004427004D32005200004432005227007E
:107ED9004427005200004427005227004200005264
:107EE90000004400005227004427004227000102F5
:107EF9000304030405030405030405030405000240
:107F0900050403040501040705040307040100032C
:107F1900050107040101040707040107040100041E
:107F2900050202010000030606070808050201020E
:107F390003040607080607080607080607080003DA
:107F490005010805020003060805020805020002EA
:107F590005040607080003060201000805020104DA
:107F690003020201000201000201000201000001F6
:107F790005030003060003060003060805020100C5
:107F890001000000010100000000737461746500C4
:107F99006465666600422700442700452700462796
:107FA900004C27004D270052270053270055270072
:107FB9005827005927005A27004232004432004509
:107FC90032004632004C32004D32005232005332F8
:107FD900005532005832005932005A3200420044EA
:107FE90000450046004C004D005200530055005812
:067FF9000059005A0000CF
:020000040020DA
:08000000FFFFFFFFFFFFFFFF00
:020000040030CA
:0E000000FF281B3CFFBF85FF0FC00FE00F4025
:0200000400F00A
:08000000FFFFFFFFFFFFFFFF00
:00000001FF
