:020000040000FA
:040000008031232800
:100008007E1480318131522180310B1D21288230AC
:10001800200095000130F0070030F13D0B11740805
:100028000319212801307102F43003197002031CEE
:100038002128F001F101F601F5017E100900803157
:10004800252881318721FB00F001F101F201F3013C
:10005800F401F501F601A001A101A2017E10200022
:100068008031362881312021803181313A21803117
:100078007B280A30F8000030F9008131682180318E
:1000880020000D1C44280A30F8000030F9008131A6
:10009800682180317608031D5428F601F60A7B286A
:1000A8007603031D71287508031962280930813108
:1000B8007D2180310130F502F6017B280130FA00FC
:1000C8007A08F5077B28043081317D218031792831
:1000D800053081317D21803179287608023A03196B
:1000E8006728013A03196C287928F601F5012000E0
:1000F8000D1C3D288D19AD280A30F8000030F90094
:1001080081316821803120008D1D87280A30F80050
:100118000030F9008131682180317608031D962866
:100128000230F32802307606031DA5285728083028
:1001380081317D2180317928033081317D218031E1
:1001480079287608013A03199B28053A0319A0284B
:1001580079280D1BDC280A30F8000030F9008131BD
:100168006821803120000D1FB6280A30F8000030C1
:10017800F9008131682180317608031DC5280330D4
:10018800F32803307606031DD4285728013081311F
:100198007D2180317928063081317D21803179288F
:1001A8007608013A0319CA28053A0319CF2879288D
:1001B8008D1B0E290A30F8000030F90081316821C2
:1001C800803120008D1FE5280A30F8000030F90042
:1001D8008131682180317608031DF7280430FA0040
:1001E8007A08F6007B2804307606031D062957286E
:1001F800073081317D2180317928023081317D219C
:10020800803179287608023A0319FC28013A031943
:10021800012979288B1A1B29760803191B29823092
:100228009500F001F101F401F40A8B167B28760899
:10023800031D7B288B127B28703021009900230036
:100248008D01C93021008D0020008D01C9302400A6
:100258008D0021009513053095008230200095000F
:100268000B11F001F1018B128B17080022001D13EE
:100278009D12240094131413151295161508F039BD
:100288000438950021008D140D110D168D162000CF
:100298009111210091150B178B1708002000911D53
:1002A80008007B08031D65297335F7007708F300FC
:1002B80024001108F7007708F20073089100FB0189
:1002C800FB0A2000911108000530210095008230BA
:1002D800200095000B11F001F101F4018B1679084B
:1002E8007102031D792978087002031C73298B1287
:1002F8000800F9007B0803197E297908F8007808B6
:08030800F300FB0108000134C1
:020000040001F9
:04000E0084CFFFFBA1
:00000001FF
